:020000040800F2
:10000000D00B002001010008EB390008F92D000891
:10001000E939000841100008D54900080000000037
:10002000000000000000000000000000154400086F
:100030004310000800000000CB3E000817440008F1
:100040001B0100081B0100081B0100081B01000820
:100050001B0100081B0100081B01000871120008A9
:10006000771200087D120008831200081B010008A7
:100070001B0100081B0100081B0100081B010008F0
:100080001B0100081B0100081B0100081B010008E0
:100090001B0100081B0100081B0100088912000851
:1000A0001B0100081B0100081B0100081B010008C0
:1000B0007D4400081B0100081B0100081B0100080B
:1000C0001B0100081B0100081B0100081B010008A0
:1000D0001B010008C94900081B0100081B0100089A
:1000E0001B0100081B0100081B010008DFF80CD0F1
:1000F00000F04CFC00480047E1560008D00B0020FF
:100100000648804706480047FEE7FEE7FEE7FEE7B1
:10011000FEE7FEE7FEE7FEE7FEE7FEE779440008BC
:10012000ED000008202A04DB203A21FA02F0002129
:10013000704721FA02F3D040C2F1200291400843F7
:1001400019467047D2B201E000F8012B491EFBD2DC
:1001500070470022F6E710B513460A4604461946D2
:10016000FFF7F0FF204610BDF0B480EA0102D40F83
:100170004200B2EB410F02D20246084611464A0045
:1001800042D0C30DDDB2C1F3C752AD1A202D35DA0E
:10019000C1F3160141F4000204B15242C5F1200638
:1001A00002FA06F12A411044B3EBD05F23D0C4B168
:1001B000012DA0EBC35009DCF0BC4FF0004202EA75
:1001C000C352DBB200F5000000F084BA400000F139
:1001D000807000EBC350A0F1807040EAD1704900FC
:1001E00009E0490841EAC071A0EBC35000F50000E6
:1001F000400800EBC350F0BC00F063BA614201223A
:1002000002EB4101001BF6E7F0BC704781F00041B2
:10021000AAE780F00040A7E780EA010210B502F0EB
:100220000043400022D04A001FD0010E01EB1261B2
:10023000C0F35600C2F3560240F4000042F400023C
:10024000A0FB022000047F39140400D0401C50EAB7
:10025000124001D44000491EC2B20C0604EBD0107B
:10026000401C4008802A02D003E0002010BD20F08E
:100270000100002900DA0020184310BD30B480EAE4
:10028000010202F0004530F0004221F0004013D09E
:1002900090B1C30DD40DC2F31601C0F31600E41AD9
:1002A00041F4000140F400027D34914201D3641C0A
:1002B00000E04900002C02DA30BC002070474FF407
:1002C00000000023914201D3891A034340084FEAFA
:1002D0004101F7D151B1914202D14FF0004105E007
:1002E00002D24FF0010101E06FF0010103EBC450B5
:1002F000284430BC00F0E5B9420005D0C0F3C75235
:100300005242914201DC0020704700EBC15070471F
:100310002DE9FE4F804681EA0300C00F0C46009095
:1003200021F0004123F00045B8EB0200A94105D2BD
:100330004046214690461C460B46024623F00040AC
:10034000104347D0270DC7F30A00C3F30A510290A8
:10035000401A019040286BDAC3F3130040F4801B6D
:100360000098924620B10023D2EB030A63EB0B0BFB
:1003700001985946C0F14002504600F074F9064613
:100380000D4650465946019A00F07CF910EB0800E2
:100390006141002487EA115284EAE7731A4340D08E
:1003A000009A62B3019A012A4FEA075215DC001B3A
:1003B00061EB02014FF0004202EA0752CDE9004230
:1003C000001C41F5801132462B4600F0EFF903B0D6
:1003D000BDE8F08F40462146F9E7001B61EB0201C2
:1003E000001C41F5801300185B412018A2F500178E
:1003F00047EB030140EAD570B6196D4111E06D0875
:100400004FEA360645EAC0754FEA0752001B61EB1A
:100410000201001C41F5801149084FEA3000001923
:10042000514132462B4603B0BDE8F04F00F0AFB962
:100430000098012240000023D0EB020263EBE0733E
:10044000009821464FEAE074B8EB000061EB04012C
:10045000E9E783F000435BE781F0004158E72DE9CD
:10046000F04D81EA030404F0004B21F000451446EE
:100470004FF0000A23F0004150EA050220D054EA70
:1004800001021DD0C5F30A570246C5F31303C1F399
:100490001300C1F30A5640F4801543F48013A7EB10
:1004A0000608101BD64608F2FD3873EB050002D390
:1004B00008F1010801E092185B41B8F1000F03DA7E
:1004C00000200146BDE8F08D00204FF48011064663
:1004D00084460EE0171B73EB050705D3121B63EB75
:1004E000050306434CEA010C49084FEA3000921814
:1004F0005B4150EA0107EDD152EA030012D082EAD3
:10050000040083EA0501084305D0101BAB4106D265
:100510000122002306E000224FF0004302E06FF0CA
:10052000010253101AEB06004CEB085110EB0A00C5
:1005300041EB0B01BDE8F04D00F029B9C10F80EA95
:10054000E0700844CA079623002100F0C3B8962340
:100550000022114600F0BEB800F0004220F000403A
:10056000C10DC0F3160040F400007F2901DA00201D
:100570007047962903DCC1F19601C84001E0963925
:100580008840002AF4D04042704700F0004230F02A
:1005900000400AD0C10D01F56071C0F3160042EAB7
:1005A0000151C208400711437047002001467047BF
:1005B000002801DBC0F10040002901DBC1F100414E
:1005C00081427047002801DBC0F10040002901DBB7
:1005D000C1F100418842704730B50B46014600200A
:1005E0002022012409E021FA02F59D4205D303FAF5
:1005F00002F5491B04FA02F52844151EA2F1010276
:10060000F1DC30BD2DE9F05F0546002092469B46A7
:1006100088460646814640241BE028464146474618
:100620002246FFF77FFD53465A46C01A914110D328
:1006300011461846224600F016F82D1A67EB0108FD
:100640004F4622460120002100F00DF817EB00096B
:100650004E41201EA4F10104DFDC484631462A4603
:100660004346BDE8F09F202A04DB203A00FA02F15D
:10067000002070479140C2F1200320FA03F3194390
:1006800090407047202A06DBCB17203A41FA02F04F
:1006900043EAE07306E041FA02F3D040C2F12002DF
:1006A00091400843194670477CB50023CDE90033DB
:1006B0000546684600F097F96946284604F0CEF9E9
:1006C0007CBD0029A8BF7047401C490008BF20F02E
:1006D0000100704710B4B0FA80FC00FA0CF050EA48
:1006E000010404BF10BC704749B1CCF1200421FAC9
:1006F00004F411FA0CF118BF012121430843A3EBC4
:100700000C01CB1D4FEA00614FEA102042BF0020D0
:1007100010BC704700EBC35010440029A4BF10BCAC
:100720007047401C490008BF20F0010010BC704712
:10073000F0B4002802DCF0BC00207047C0F3C751C1
:10074000C0F3160040F40000CA0701D14000491E62
:100750003F2202EB6105002211464FF4000626FA03
:1007600001F31344D418844201D8001B1A464000F8
:10077000491C1729F3DD5100814202D24FF0FF31AD
:1007800000E0002102EBC550F0BCFFF79ABF10B5A6
:10079000141E73F1000408DA401C41F100019218A4
:1007A0005B411A4301D120F0010010BD2DE9F04D4D
:1007B00092469B4611B1B1FA81F202E0B0FA80F2A2
:1007C00020329046FFF74FFF04460F4640EA0A00EA
:1007D00041EA0B0153465A46084313D0114653EAE7
:1007E000010019D0C8F140025046FFF79BFC0546B6
:1007F0000E46504659464246FFF735FF084305D09E
:10080000012004E020463946BDE8F08D0020054374
:1008100046EAE0762C4337430A986305E40AA0EBE6
:1008200008000022FD0A44EA47540A3002D500209D
:100830000146E9E7010510196941DDE9084500199C
:100840006941BDE8F04DA2E72DE9FE4F81EA0304BE
:1008500004F0004421F0004100944FF0000B23F01D
:10086000004350EA01045ED052EA03045BD0C3F3B4
:100870000A54C1F30A552C44A4F2F3340194A0FBAA
:100880000254C1F3130141F48011C3F3130343F481
:10089000801301FB024400FB034E840A970A44EADA
:1008A000815447EA8357A4FB076802958D0A05FB2C
:1008B00007854FEA932C04FB0C542705029D4FEA51
:1008C000065847EA1637B5EB08056EEB070C870E9E
:1008D000920E47EA811742EA8312A7FB0201B6EBA8
:1008E0000B0164EB00042B0D43EA0C335E1844EB60
:1008F0001C50DA465146E7FB0201C5F313044FEAE8
:100900000B3343EA14534FEA0432019C43EA0603D3
:10091000A4F10C040294009CCDE900B4FFF746FF5B
:1009200003B0BDE8F08F00200146F9E7C1F30A5299
:10093000C1F3130140F2FF3341F480119A4202DA0D
:1009400000200146704740F233439A42A2F23342FC
:1009500002DC5242FFF7E6BBFFF785BE30B5041E4E
:1009600071F1000404DB4FF00044404264EB0101EC
:10097000141E73F1000405DB1C464FF00043524285
:1009800063EB0403994208BF904230BD064C074D0B
:1009900006E0E06840F0010394E80700984710344F
:1009A000AC42F6D3FFF7A6FBDC750008FC75000827
:1009B0000FB4002300B589B00CA900910B996FF01A
:1009C0000042CB601E4B06931E4B07930423CDE9D8
:1009D00001321D4A089202466B46002000F0D0F812
:1009E00009B05DF814FB70B586B006464FF0FF30D5
:1009F0000091CDE90101002015460C4604903246D5
:100A0000694604A8FFF7D4FF02460498211825B1CF
:100A100008B1084600E020462860049800280DD060
:100A2000002A02DD0098884208D0081B0094CDE916
:100A300001043246694604A8FFF7BAFF06B070BD4C
:100A4000B90D0008D70D00084D0A0008C0B24FF4D8
:100A5000F05100F007BA00002DE9FF4F087883B08D
:100A60009946FF2805D0491C2D2804D000240020D9
:100A700008E000200BE00124F9E700EB800003EB25
:100A80004000491C0B78FF2BF7D104B140420023F2
:100A90000293147819461D462D2C01D02B2C04D11D
:100AA000521C2D2C13D000240294AA461478FF2C3B
:100AB0000FD00A25A3FB057801FB05814FF0000C40
:100AC00003FB0C11521CE3194AEB0101EEE7012470
:100AD000EAE7814453EA010002D019F5C87F06DA3B
:100AE00003980021C0E9001107B0BDE8F08F002590
:100AF000AE4E2F46DFF8B882184600F0DEF9CDE999
:100B00000001B9F1000002DAC9F1000400E0044676
:100B10000023A74A1AEB030B42EB045A12E0E0074A
:100B200007D02A46334638464146FFF78DFE074632
:100B300088462A46334610461946FFF785FE054685
:100B40000E466410002CEAD1DDE90001B9F1000F76
:100B50005A46534606DAFFF782FC3A464346FFF709
:100B60007EFC05E0FFF770FE3A464346FFF76CFE59
:100B7000029A0AB181F00041039AC2E90001B3E789
:100B80002DE9FF4F1F468DB0D7E901464FF0FF38E2
:100B90002E2045464FF000090B90B9696D1C0E9848
:100BA0008847396A824688470028F6D1BAF1FF3F64
:100BB0000AD024F4D064002E11DDBAF12B0F08D036
:100BC000BAF12D0F0BD102E0404611B08DE744F48D
:100BD0008064B9696D1C0E9888478246761E694606
:100BE000600501D52D2000E02B208DF8000001F1DB
:100BF000010B0DF1200809E0B9696D1C0E988847BA
:100C000082460F9844F40074761E0560002E02DDC3
:100C1000BAF1300FF0D00B998A453ED144F08004F0
:100C200006E00F99681CA9F1010944F400740860FA
:100C3000B9696D1C761E0E98884782463028F0D020
:100C40002BE00B998A4505D1200603D444F080049B
:100C5000761E18E0504604F03FF808B30DF113017A
:100C6000761E44F400748B4508D2AAF130000BF8CC
:100C7000010B200607D5A9F1010003E0200602D4EC
:100C800009F101008146A00502D50F99681C086092
:100C9000B9696D1C0E9888478246002ED1DC53E05E
:100CA000002E51DDBAF1650F02D0BAF1450F4BD1DC
:100CB000A00549D5B9696D1C24F44074761E0E98C0
:100CC00088478246002E0CDD2B2804D0BAF12D0F68
:100CD00007D144F48074B9696D1C0E988847824628
:100CE000761EE00501D52D2100E02B2108F8011B1F
:100CF000CDF82C8021E00DF12901761E44F400741A
:100D000088450CD2AAF1300010F0FF0088F80000EE
:100D100002D10B99884509D908F1010806E0E005E0
:100D200001D5244801E042F20F708146B9696D1C7B
:100D30000E98884782460F980560002E04DD5046C5
:100D400003F0CAFF0028D6D1F9690E988847FF2022
:100D50008BF8000088F800000020069007904B46B2
:100D60006A4608A906A8FFF777FEA00502D46FF02F
:100D700001002AE714F0240F0AD0E00714D1DDE9BE
:100D800006123868031D3B600068C0E900120BE0E2
:100D9000DDE9060100F048F80146E00704D13868B3
:100DA000021D3A600068016028460EE7000014400A
:100DB0000000F03FF1D8FFFF426842B1016811F82E
:100DC000013B23B1521EC0E90012184670470121B1
:100DD000C160881E704742685AB1C368016843B950
:100DE00083688B4205D0491E521CC0E900120020C6
:100DF00070474FF0FF30704730B5041E71F10004AA
:100E000004DB4FF00044404264EB0101141E73F117
:100E1000000405DB1C464FF00043524263EB040321
:100E20008B4208BF824230BD01F0004330B421F054
:100E3000004150EA010206D00A0DA2F56072C1F32A
:100E40001301002A02DC30BC00207047440F44EA42
:100E5000C104C100E01830BC00EBC250FFF731BC48
:100E6000002070477F2801D9002208E0064A02EBE3
:100E70005002C007127800D1120902F00F020120BF
:100E800090400840704700009A75000870B521F046
:100E9000004303430CD0C1F30A550024D5EB0405ED
:100EA00064EB0403D617AD1AB34102DB0020014600
:100EB00070BD201841EB025170BD0EB540F23342B7
:100EC00002920022CDE900221346FFF76FFC03B027
:100ED00000BD00002DE9F04F87B03F4900200860B9
:100EE0003E4908603E49087002F020FC02F0AEFD69
:100EF0000124002110233BA20846009402F013FFB6
:100F00000C233BA218210020009402F00CFF02F0F9
:100F10001DFE4FF4FA6000F047FA02F067FD10235F
:100F200036A219460020009402F0FDFE02F00EFEEB
:100F3000344C354D354E23462A463146344802F06E
:100F400076FB23462A463146324802F070FBDFF832
:100F5000D080DFF8D090CDE900982F4E4FF080443C
:100F60004FF07E552D4FDFF8C0B04FF07F5ACDE9DE
:100F70000276CDE904545B46524651462B4802F0B6
:100F80008AFFCDE90098CDE90276CDE904545B46AD
:100F900052465146264802F07EFF264801882648E0
:100FA000026851632549006809888163002122484D
:100FB00001F014FD00B1FEE704211F4801F00EFD11
:100FC00000B1FEE74FF4967000F0EEF907B0BDE80F
:100FD000F04F02F07BBF00003C00002040000020EA
:100FE000440000204F4C4544205445535400000019
:100FF00048454C4C4F2053544D3332004F4C4544E0
:10100000204F4B008FC2F53CA69B443B6F12833AA6
:10101000540100207C010020CDCC4C3D0000484410
:10102000000048C40AD7A33B8FC2753DA40100202D
:10103000DC01002036000020BC0200203800002027
:10104000FEE770472DE9FC4705460F4690461C46D3
:1010500018F1FF4F02D34FF0FF3600E00126304673
:10106000FFF76CFA4146FFF7D7F81F49FFF7D4F8AE
:101070004FF07C51FFF778F8FFF76EFA0A2190FBEA
:10108000F1F890FBF1F201FB120A4FF00109002E7A
:101090000ADA23462D2239462846CDF8009002F080
:1010A00089FD05EB5400C5B2CDE900490323424652
:1010B0003946284602F0FAFD600800EB400005447E
:1010C000E8B2234609A23946CDF8009002F02BFE83
:1010D000CDE9004905EB5400C0B201235246394620
:1010E00002F0E4FDBDE8FC87000020412E00000076
:1010F0002DE9F8430746884615461E46404B1878AA
:10110000401CC2B21A70142A05D25878854202D106
:101110009878864272D0002018705D709E7002F040
:1011200065FC012400210C2336A20846009402F03D
:10113000FAFD0C233A4600213020FFF783FF0C23F1
:1011400032A210210020009402F0EDFD0C23424653
:1011500010213020FFF776FF0C232EA22021002043
:10116000009402F0E0FD012D13D0022D19D0032DC3
:101170001FD00C2329A220213020009402F0D3FD9F
:10118000FEB10C2327A230210020009402F0CBFDF9
:1011900030E00C2328A220213020009402F0C3FD6F
:1011A000EEE70C2326A220213020009402F0BBFDA4
:1011B000E6E70C2324A220213020009402F0B3FDA6
:1011C000DEE727F000404FF07E5188420BDA28F02E
:1011D0000040884207DA0C231DA230210020009431
:1011E00002F0A1FD06E00C231DA230210020009496
:1011F00002F099FDBDE8F84302F0A8BCBDE8F88311
:101200000300002050697463683A0000526F6C6CF0
:101210003A0000005461726765743A004E6F6E6563
:101220000000000042616C6C3A20537461626C658E
:101230002043656E746572004C65667400000000A2
:1012400043656E746572000052696768740000003F
:1012500042616C6C3A20537461626C65000000005E
:1012600042616C6C3A204D6F76696E670000000039
:10127000022000F0BBB8042000F0B8B8082000F04D
:10128000B5B8102000F0B2B8202000F0AFB872B6A8
:10129000FEE7000070B500F0B5F90446054DA868FA
:1012A000201A142804D902F067F8AC6000202870D6
:1012B000687870BD0800002010B5FFF7EBFF01480B
:1012C000406810BD0800002010B590F821100022E1
:1012D000022905D00421816380F82020012010BD5F
:1012E00001680B6823F00E030B6001680B6823F0A4
:1012F00001030B6090F84030C46B012101FA03F345
:10130000636080F8211080F82020104610BD000096
:1013100010B5002490F82110022903D00421816324
:1013200001243DE001680A6822F00E020A600168AB
:101330000A6822F001020A601A4A0168914201D14A
:10134000012121E0174A1432914201D110211BE002
:10135000144A2832914201D1891515E0114A3C32D4
:10136000914201D189140FE00E4A5032914202D1CC
:101370004FF4803108E00B4A6432914202D14FF4BD
:10138000801101E04FF08071064A083A5160012156
:1013900080F82110002180F82010416B01B18847AE
:1013A000204610BD0800024070B5044600F02AF93E
:1013B0000546601C02D004480078044400F022F97D
:1013C000401BA042FAD370BD58000020022807D06D
:1013D000042805D0082803D0102801D0202802D1E5
:1013E00001490120087070470800002010B5044929
:1013F0000A68024202D00860FFF7E8FF10BD000053
:10140000140401402DE9F84F00240023DFF8C491B3
:101410004FF00F08A9F1040B09F1040AABF1040E17
:10142000D1E00127A7403A40BA4275D1DFF8A8C100
:101430004D68A5EB0C0665452BD00DDC032D34D093
:1014400005DC35B3012D19D0022D2FD11BE0112D54
:1014500016D0122D2AD119E0B6F5881F19D006DC56
:10146000B6F5803F15D0B6F5801F1FD111E0B6F557
:10147000001F0ED0B6F5041F18D10AE0CB6815E0A6
:10148000CB681B1D12E0CB6808330FE0CB680C3330
:101490000CE08B6823B1012B04D00823476105E0E1
:1014A000042303E00823076100E00023FF2A01D89A
:1014B000054601E000F1040502D84FEA840603E086
:1014C000A4F108064FEA86062F6808FA06FC27EA08
:1014D0000C0703FA06F647EA06072F604D68ED0091
:1014E00070D53E4DAE6946F00106AE61AD6905F0BE
:1014F000010500953A4D24F003067719BE68A5074B
:101500002D0F08FA05FC26EA0C06DFF8D8C0604566
:1015100003D14FF0000C17E054E0DFF8CCC0604579
:1015200002D14FF0010C0FE0DFF8C0C0604502D1DE
:101530004FF0020C08E0DFF8B8C0604502D14FF070
:10154000030C01E04FF0040C0CFA05FC4CEA060C0D
:10155000C7F808C04D68ED0205D5D9F8005015430D
:10156000C9F8005004E0D9F800509543C9F800507C
:101570004D68AD0205D5DAF800501543CAF80050A1
:1015800004E0DAF800509543CAF800504D68AD0306
:1015900005D5DBF800501543CBF8005004E0DBF82C
:1015A00000509543CBF800504D68ED0305D5DEF8AB
:1015B00000501543CEF8005004E0DEF8005095438B
:1015C000CEF80050641C0A6832FA04F57FF429AFA3
:1015D000BDE8F88F0804014000001110001002401F
:1015E0000000014000080140000C014000100140D3
:1015F000001401408068084201D00120704700209B
:1016000070470000014880687047000058000020C3
:1016100070B50446002C04D094F83D00002510B1AC
:1016200006E0012070BD84F83C50204600F076FBB7
:10163000242084F83D002068016821F00101016048
:101640002068016841F4004101602068016821F4CC
:101650000041016000F002FD4F4B6168994203D8E0
:101660004E49884203D304E04D49884201D201200B
:1016700070BD4C49B0FBF1F12268566826F03F0678
:101680000E43566062689A4201D8491C07E04FF445
:10169000967251434FF47A72B1FBF2F1491C226801
:1016A000166A26F03F06314311626168994210D8EC
:1016B0004900401EB0FBF1F2521CC2F30B02042A97
:1016C00001D2042022E0B0FBF1F0401CC0F30B007B
:1016D0001CE0A268F2B301EBC10303EB0116431E49
:1016E000B3FBF6F35B1C43F480431B0549D092B374
:1016F00001EBC10202EB0111401EB0FBF1F0401CF6
:10170000C0F30B0040F4804040F400402168CA69F7
:101710004CF6FF739A431043C861D4E907100143A4
:101720002068026822F0C00211430160D4E903017D
:1017300001432068826848F2FF339A431143816075
:10174000D4E9051001432068C26822F0FF0211436A
:10175000C16001E00EE016E02068016841F001017F
:1017600001602564202084F83D00256384F83E5004
:10177000002070BD01EB4106431EB3FBF6F35B1C7A
:10178000B3E70120C2E701EB4101401EB0FBF1F0DD
:10179000401CC0F30B00B7E7A086010080841E0048
:1017A00000093D0040420F002DE9F84F04468A46EB
:1017B00015469946DDF82880FFF724FF064694F881
:1017C0003D00202802D00220BDE8F88F1923012215
:1017D00045492046009601F0ADFC08B10220F3E730
:1017E00094F83C00012807D0012084F83C002068D0
:1017F0000168C90702D005E00220E5E7016841F071
:10180000010101602068016821F40061016021206C
:1018100084F83D00102084F83E00002727646562AC
:10182000A4F82A90608D20853048E0623346424615
:101830005146204601F0F8FA08B10120C4E72068BB
:101840004169806900903EE032464146204601F001
:1018500066FD48B1206C042804D12068016841F479
:10186000007101600120AFE7606A216800780861BB
:10187000656A6D1C6562608D401E6085208D401E0E
:1018800080B2208522685169C94349070BD450B101
:1018900028781061606A401C6062608D401E60851F
:1018A000208D401E208532464146204601F016FC20
:1018B00048B1206C042804D12068016841F400710B
:1018C0000160012080E7208D0028BDD11F3454F82D
:1018D0001F0C016841F4007101602020A077E777B8
:1018E0006777002070E70000020010000000FFFF93
:1018F0002DE9FF4F83B00446DDE91198109F8A4619
:10190000934600260296FFF77DFE054694F83D00BB
:10191000202803D0022007B0BDE8F08F1923012250
:10192000A9492046009501F005FC08B10220F2E724
:1019300094F83C00012807D0012084F83C0020687E
:101940000168C90702D005E00220E4E7016841F020
:10195000010101602068016821F40061016022201A
:1019600084F83D00402084F83E0026646762A4F8B5
:101970002A90608D20859548E062CDE900855A4621
:1019800051462046069B01F0A7FA08B10120C2E7A4
:10199000208D80B1012817D0022825D02068016849
:1019A00041F48061016020684169806901902027CD
:1019B000DFF81C92FFE020684169816901910168AC
:1019C00041F400710160F2E72068016821F4806150
:1019D000016072B62068416981690191016841F432
:1019E0000071016062B6E2E72068016841F40061BD
:1019F000016072B62068416981690191016821F432
:101A00008061016062B6D2E703287DD801280BD03F
:101A100002281FD04346002249462046009501F087
:101A200089FBE8B3012076E72A464146204601F0CB
:101A30003BFC08B101206EE720680069616A08700C
:101A4000606A401C6062208D401E2085608D401EB3
:101A50006085B0E04346002249462046009501F0EB
:101A600069FB08B1012056E772B62068016841F4AD
:101A70000071016020680069616A0870606A401C3A
:101A80006062218D491E2185618D491E618562B686
:101A9000216809690170606A401C6062208D00E065
:101AA00005E0401E2085608D401E608583E0206833
:101AB000016821F48061016072B620680069616A82
:101AC0000870606A401C6062208D401E2085608D19
:101AD000401E60853F4846F2A8110068B0FBF1F057
:101AE000C0EBC00000EB800002900298401E029004
:101AF000029830B320684069C0434007F5D420689D
:101B0000016841F4007100E027E00160206800698D
:101B1000616A0870606A401C6062218D491E2185DF
:101B2000618D491E618562B6216809690170606A2C
:101B3000401C6062208D401E2085608D401E6085A7
:101B400039E044F8306F6773A673206940F02000D5
:101B5000206162B626730120DDE62A464146204612
:101B600001F0A2FB08B10120D5E620680069616A96
:101B70000870606A401C6062208D401E81B2218521
:101B8000608D401E608520684269D243520712D49E
:101B9000032903D1016821F4806101602068006994
:101BA000616A0870606A401C6062208D401E20855A
:101BB000608D401E6085208D00287FF425AF3C3469
:101BC0006770A6702670A6E6020010000000FFFFF6
:101BD00004000100540000202DE9FF4F83B00446AB
:101BE000DDE911988A469346109DFFF70BFD0646E6
:101BF00094F83D00202803D0022007B0BDE8F08F04
:101C00001923012243492046009601F093FA08B1B6
:101C10000220F2E794F83C00012807D0012084F864
:101C20003C0020680168C90702D005E00220E4E713
:101C3000016841F0010101602068016821F4006140
:101C40000160212084F83D00402084F83E000027F8
:101C500027646562A4F82A90608D20852E48E06292
:101C6000CDE900865A4651462046069B01F0D4F93C
:101C700080B30120C1E732464146204601F04FFBC8
:101C800048B1206C042804D12068016841F4007137
:101C900001600120B1E7606A216800780861656A27
:101CA0006D1C6562208D401E80B22085618D491EAD
:101CB000618523685969C94349070BD450B1287815
:101CC0001861606A401C6062208D401E2085608D16
:101CD000401E6085208D0028CDD1324641462046E9
:101CE00001F0FCF948B1206C042804D12068016897
:101CF00041F40071016001207FE71F3454F81F0C8C
:101D0000016841F4007101602020A077E7776777D0
:101D1000002072E7020010000000FFFF30B585B020
:101D200000210191029103910491224D0168224CFE
:101D3000122203232148A9421FD1A16941F00801C1
:101D4000A161A16901F008010091190201910292BB
:101D5000049301A9FFF756FB1949486840F0E06079
:101D600040F002004860E06940F40010E061E06982
:101D700000F40010009005B030BD124DA942FAD118
:101D8000A16941F00801A161A16901F00801009178
:101D90004FF4406101910292049301A9FFF732FBD5
:101DA000E06940F48000E061E06900F480000090A8
:101DB000E1E700000054004000100240000C014028
:101DC0000000014000580040024881680278114438
:101DD000816070475800002010B50748016841F045
:101DE00010010160032000F077F8002000F006F8F1
:101DF00000F026F8002010BD0020024070B5044617
:101E00000D4D4FF47A712878B1FBF0F00B49096859
:101E1000B1FBF0F000F01AFB08B1012070BD102CEE
:101E200007D200222146501E00F036F86C600020D8
:101E300070BD012070BD000058000020540000203B
:101E400008B50C48816941F001018161816901F0A7
:101E500001010091C16941F08051C161C06900F088
:101E6000805000900449486820F0E06040F0007025
:101E7000486008BD0010024000000140002809DB56
:101E800000F01F02012191404009800000F1E02094
:101E9000C0F8001170470000F0B40D460D4B1B68F0
:101EA000C3F30223C3F10704042C00D90424191D31
:101EB000072901D2002300E0DB1E012606FA04F107
:101EC000491E294099409E40761E16403143F0BC81
:101ED00002F0ADBD0CED00E000F00701054A10680E
:101EE0004FF6FF03184040EA012003490843106001
:101EF000704700000CED00E00000FA052DE9F04706
:101F000004460D46002C17D0DFF83081D8F80000C9
:101F100000F00700A84211D2D8F8000020F0070016
:101F20002843C8F80000D8F8000000F00700A842D5
:101F300004D00120BDE8F0870120FBE72068404E77
:101F4000810712D5400703D5706840F4E0607060E7
:101F50002078000703D5706840F4605070607068A6
:101F6000A16820F0F000084370602078C0072CD0F2
:101F70006068012806D0022809D0316889070BD48F
:101F80000120D7E73168890306D40120D2E7316800
:101F9000890101D40120CDE7716821F003010143DB
:101FA0007160FFF72FFB074641F2883906E0FFF723
:101FB00029FBC01B484501D90320BBE77068616855
:101FC00000F00C00B0EB810FF1D1D8F8000000F068
:101FD0000700A8420ED9D8F8000020F007002843D7
:101FE000C8F80000D8F8000000F00700A84201D0AF
:101FF00001209FE72078400705D57068E16820F44C
:10200000E060084370602078000706D57068216999
:1020100020F4605040EAC100706000F02FF8716851
:10202000084AC1F30311515CC840074908600748DA
:102030000068FFF7E3FE00207CE70000002002407C
:102040000010024060570008540000205C0000208F
:1020500001480068704700005400002000B5FFF7F9
:10206000F7FF04494968044AC1F30221515CC840A2
:1020700000BD000000100240705700080E4B596868
:102080000E4801F00C02042A11D0082A0FD10C4886
:10209000C1F38342805CC9030AD55968084AC1F379
:1020A0004041921E515C054A5043B0FBF1F070472D
:1020B00004494843704700000010024000127A00B3
:1020C0008A75000800093D002DE9F84F0446002CF0
:1020D0000ED02078D94DC0075ED06868C0F381006B
:1020E00001280BD06868C0F38100022803D00CE0FF
:1020F0000120BDE8F88F6868C00306D52868800312
:102100004AD56068A8BB0120F3E76068B0F5803F5E
:1021100011D0A8B1B0F5A02F1BD0286820F48030D2
:102120002860286820F480202860606830B3FFF7BA
:1021300069FA06461EE0286840F480302860F4E71B
:10214000286820F480302860286820F480202860E7
:10215000EBE7286840F480202860286840F480304D
:102160002860E2E7FFF74EFA801B642802D90320BB
:10217000BFE711E028688003F4D50DE0FFF742FACD
:10218000064606E0FFF73EFA801B642801D90320CB
:10219000AFE728688003F5D42078DFF8A4828007B1
:1021A0004FF0010A4FF0000945D5686810F00C0F98
:1021B00007D06868C0F38100022812D16868C003A4
:1021C0000FD42868800704D52069012801D0012098
:1021D0008FE72868616920F0F80040EAC1002860B4
:1021E00029E02069B8B1C8F800A0FFF70BFA06464D
:1021F00006E0FFF707FA801B022801D9032078E7E1
:1022000028688007F5D52868616920F0F80040EA61
:10221000C10028600FE0C8F80090FFF7F3F9064608
:1022200006E0FFF7EFF9801B022801D9032060E7E1
:1022300028688007F5D42078000726D58148A16951
:1022400099B1C0F800A0FFF7DDF9064606E0FFF7F8
:10225000D9F9801B022801D903204AE7686A800760
:10226000F5D5012002F0C4F80FE0C0F80090FFF7A8
:10227000C9F9064606E0FFF7C5F9801B022801D917
:10228000032036E7686A8007F5D42078400773D5C5
:102290000026E869C00008D4E86940F08050E86191
:1022A000E86900F0805000900126DFF89CB1DBF86F
:1022B0000000C00514D4DBF8000040F48070CBF8B7
:1022C0000000FFF79FF9074606E0FFF79BF9C01BE8
:1022D000642801D903200CE7DBF80000C005F4D521
:1022E000E068012812D0B0B105281DD0286A20F07E
:1022F00001002862286A20F004002862E06841F2A8
:10230000883B28B3FFF77EF907461DE0286A40F0B6
:1023100001002862F2E7286A20F001002862286A9A
:1023200020F004002862E9E7286A40F004002862EF
:10233000286A40F001002862E0E7FFF763F9C01B5C
:10234000584501D90320D4E6286A8007F5D50DE069
:10235000FFF758F9074606E0FFF754F9C01B584548
:1023600001D90320C5E6286A8007F5D4012E03D1E0
:10237000E86920F08050E861E069A0B36968C1F3C2
:102380008101022946D0022805D0C8F86090FFF7E5
:1023900039F904463AE0C8F86090FFF733F9064689
:1023A00006E0FFF72FF9801B022801D90320A0E6E1
:1023B00028688001F5D4206AB0F5803F05D16868AF
:1023C000A16820F4003008436860D4E9080108439C
:1023D000696821F4741108436860C8F860A0FFF7C9
:1023E00011F9044607E026E0FFF70CF9001B02286C
:1023F00001D903207DE628688001F5D51BE0FFF7B1
:1024000001F9001B022801D9032072E62868800127
:10241000F5D410E001280CD06868226A00F48031FD
:10242000914204D1616A00F47010884203D0012007
:102430005FE601205DE600205BE600000010024040
:1024400000004242800442420070004010B5401E2D
:10245000B0F1807F01D3012010BD4FF0E024606116
:102460000F21601702F0E3FA0020A061072020612D
:10247000002010BD7047704710B590F83C20012A2D
:1024800022D0012280F83C20CA6800238C6822F404
:10249000407222434C6822F4806222430C6822F48A
:1024A000006222430C6922F4805222434C6922F4D8
:1024B00000522243C96922F480420A4301684A64F7
:1024C00080F83C30002010BD022010BD70B590F89F
:1024D0003C20012A25D0012680F83C60022280F8A9
:1024E0003D2002685468936824F070050C682C4302
:1024F00054600D4C0268A24208D0B2F1804F05D062
:102500000A4CA24202D00A4CA24204D123F080031A
:102510004968194391603C304670002101700020E9
:1025200070BD022070BD0000002C0140000400407E
:102530000008004010B50446002C03D094F83D007C
:1025400010B107E0012010BD002084F83C002046B7
:1025500000F016F8022084F83D00211D206801F0EB
:1025600093FF01203D3460726070A070E0702071B4
:102570006071A071E07120722070002010BD000019
:1025800008B50068B0F1804F12D10A48C16941F026
:102590000101C161C06900F00100009000221146F4
:1025A0001C20FFF779FCBDE808401C20FFF766BC43
:1025B00008BD00000010024090F83D10012901D034
:1025C00001207047022180F83D100168CA6842F07E
:1025D0000102CA6000680E49884208D0B0F1804FFD
:1025E00005D00C49884202D00B49884209D1816844
:1025F00001F00701062908D0016841F001010160DE
:1026000003E0016841F00101016000207047000013
:10261000002C0140000400400008004070B5044652
:10262000002594F83C00012817D0012684F83C606E
:10263000022084F83D002068826822F0770222F4AC
:102640007F4282600868502838D00DDC202853D0A3
:1026500005DC90B3102811D14EE0022070BD302867
:102660004AD040280AD13DE0602831D070280CD0F3
:10267000B0F5805F03D0B0F5005F12D001253C3487
:10268000667000202070284670BDCB68D1E901211A
:10269000206801F042FF2068816841F07701816085
:1026A000EDE7CB68D1E90121206801F036FF206811
:1026B000816841F480418160E1E71DE0CA684968B2
:1026C000206801F0F3FF5021206801F030FFD6E7C9
:1026D000CA684968206801F0FAFF6021206801F0AB
:1026E00026FFCCE7CA684968206801F0DFFF402177
:1026F000206801F01CFFC2E722680146104601F085
:1027000016FFBCE770472DE9F04104462068C56814
:1027100006694FF00007B10714D5A90712D5F91EB5
:1027200001610120207720688069800703D020465E
:10273000FFF7E8FF05E0204600F0A8F8204600F08B
:102740004BF92777700717D5680715D521686FF003
:1027500004000861022020772068806910F4407F1F
:1027600003D02046FFF7CEFF05E0204600F08EF8AC
:10277000204600F031F92777300716D5280714D501
:1027800021686FF008000861042020772068C06984
:10279000800703D02046FFF7B5FF05E0204600F094
:1027A00075F8204600F018F92777F00617D5E806E7
:1027B00015D521686FF01000086108202077206887
:1027C000C06910F4407F03D02046FFF79BFF05E06F
:1027D000204600F05BF8204600F0FEF82777F0076F
:1027E00008D0E80706D021686FF001000861204694
:1027F00000F04AF9300608D5280606D521686FF0A2
:10280000800008612046FFF735FE700608D568068F
:1028100006D521686FF040000861204600F03EF9BF
:10282000B0060AD5A80608D521686FF02000086117
:102830002046BDE8F041FFF71EBEBDE8F081000074
:1028400000B585B0002101910291039104910068C7
:102850000B49884212D10B48816941F00401816122
:10286000806900F0040000904FF440700190022055
:102870000290049001A90448FEF7C4FD05B000BD14
:10288000002C01400010024000080140704770B564
:1028900004460D46002694F83C0001280FD0012084
:1028A00084F83C006AB1042A1FD0082A32D00C2ACE
:1028B00044D00126002084F83C00304670BD022040
:1028C00070BD2946206801F03BFE2068816941F017
:1028D000080181612068816921F00401816120681B
:1028E00081692A6911438161E4E72946206801F082
:1028F00057FE2068816941F4006181612068816927
:1029000021F480618161206881692A6941EA02219C
:102910008161CFE72946206801F074FE2068C16913
:1029200041F00801C1612068C16921F00401C16161
:102930002068C1692A691143C161BBE72946206843
:1029400001F090FE2068C16941F40061C161206816
:10295000C16921F48061C1612068C1692A6941EAC5
:102960000221C161A6E710B50446002C03D094F8FB
:102970003D0010B107E0012010BD002084F83C00AC
:10298000204600F015F8022084F83D00211D206843
:1029900001F07AFD01203D3460726070A070E0703B
:1029A00020716071A071E07120722070002010BD54
:1029B00008B500680649884208D10648816941F493
:1029C00000618161806900F40060009008BD000032
:1029D000002C0140001002407047000010B5044672
:1029E000002909D004290AD008290BD094F8410005
:1029F00001280AD0012010BD94F83E00F8E794F8B1
:102A00003F00F5E794F84000F2E7022039B30429CB
:102A100028D0082929D084F841000122206801F03B
:102A20006FFD16492068884203D1426C42F400428F
:102A300042642068884208D0B0F1804F05D0104928
:102A4000884202D00F49884212D1816801F0070103
:102A5000062911D0016841F0010101600CE084F801
:102A60003E00DAE784F83F00D7E784F84000D4E777
:102A7000016841F001010160002010BD002C0140FF
:102A800000040040000800400068B0F1804F02D10F
:102A900001490120087070473400002070477047DA
:102AA00070470000F8B5044622681068D168536981
:102AB00000F00F06002E08D1850606D58D0604D538
:102AC0002046BDE8F84001F095BE0025002E66D0F6
:102AD00003F0010601F49077374360D0C20705D0B8
:102AE000CA0503D5626C42F001026264420705D553
:102AF000DA0703D0626C42F002026264820705D5F5
:102B0000DA0703D0626C42F004026264020707D560
:102B100001F02002324303D0626C42F0080262648A
:102B2000626C002A31D0800604D5880602D5204682
:102B300001F060FE20684069C0F38010616C0907F5
:102B400000D438B3204601F0DCFD2068406940061F
:102B50001CD52068143050E8001F21F0400140E8E7
:102B60000012002AF5D1E06B60B159494163E06B76
:102B7000FEF7CEFB002808D0E06B416B01B0BDE84A
:102B8000F04008472046FFF78BFFF8BD2046FFF7CF
:102B900087FFF8BD2046FFF783FF6564F8BD236B10
:102BA000012B7DD1C3067BD5CB067ED5106850683E
:102BB000009050694FF0200340064FF0020643D5C5
:102BC000E16B0868406880B20028E7D0A28D82429D
:102BD000E4D9E085886920282DD020680C3050E8A1
:102BE000001F21F4807140E80012002AF5D120680E
:102BF000143050E8001F21F0010140E80012002AC3
:102C0000F5D12068143050E8001F21F0400140E861
:102C10000012002AF5D184F84230256320680C3078
:102C200050E8001F21F0100140E80012002AF5D101
:102C3000E06BFEF749FB6663A08DE18D401A81B21F
:102C40002046FFF72CFFF8BDA08DE18D401A81B220
:102C5000E08D0028F7D00029F5D020680C3050E82E
:102C6000002F22F4907240E80027002FF5D1206851
:102C7000143050E8002F22F0010240E80027002F16
:102C8000F5D184F84230256320680C3050E8002FDD
:102C900022F0100240E80023002BF5D1666300E02B
:102CA00003E02046FFF7FBFEF8BD020606D50A0644
:102CB00004D52046BDE8F84001F01CBE4006F3D51F
:102CC0004806F1D52046BDE8F84001F041BD0000BE
:102CD000F346000890F84230202B01D002207047C4
:102CE00021B11AB10023036301F0E8BD0120704750
:102CF00030B40068114988421ED1114A9078114CB5
:102D00000A2810D00D280ED011783F2903D211784F
:102D10004B1C137060540A490A480122891C30BCBC
:102D20004838FFF7D7BF10780028F4D0117800207A
:102D3000605401205070EEE730BC7047003801400D
:102D400000000020B00000202DE9F84304460E46A4
:102D500015461F4694F84100202802D00220BDE805
:102D6000F8837EB175B100206064212084F84100B1
:102D7000FEF748FC8146A584E584A068B0F5805F35
:102D800002D003E00120EAE7206920B135460026A1
:102D90004FF0200815E00025FAE74B46002280217D
:102DA0002046009701F0D5FD18B184F8418003203A
:102DB000D5E7ADB1216815F8010B4860E08C401EE5
:102DC000E084E08C0028E8D14B46002240212046D8
:102DD000009701F0BEFD50B184F841800320BEE7AA
:102DE00036F8020B2168C0F308004860E6E784F873
:102DF00041800020B3E77047FEE701684A69D2438B
:102E000052050FD46FF480624A61002140F8301FF0
:102E1000202242738173026942F00402026101734D
:102E20000120704700207047F8B504460D4617464C
:102E30001E46E06A082808D0012806D010F5803F19
:102E400003D0206B122806D00AE02068016841F404
:102E50008071016004E02068016841F480710160C4
:102E60003B4600224FF001112046009600F062F927
:102E700040B120680068C00502D54FF4007020649E
:102E80000320F8BD2069B0F5804F0FD005F44070E5
:102E9000F02141EAD0102168086133463A460D49D5
:102EA000204600F09DF930B10120F8BD216805F001
:102EB000FE00086102E02168E8B208610549334676
:102EC0003A46891F204600F08BF908B10120F8BD71
:102ED0000020F8BD080001002DE9F84F04460B9EC4
:102EE0000F4690461D462068016841F480610160EC
:102EF0002068016841F48071016000964FF0011A6A
:102F00000022514620460A9B00F014F94FF4007944
:102F100040B120680068C00501D5C4F84090032086
:102F2000BDE8F88F216807F0FE000861DFF8E4B023
:102F30003346594620460A9A00F052F908B101205A
:102F4000EEE72068416980690090324620460A9980
:102F500000F0E5F948B1206C042804D1206801682C
:102F600041F4007101600120DAE7284608F0FF050E
:102F700001280DD021684FEA18200861324620460A
:102F80000A9900F0CCF968B1206C042803D007E05E
:102F90002068056108E02068016841F40071016063
:102FA0000120BDE720680561324620460A9900F0FD
:102FB000B6F948B1206C042804D12068016841F4B6
:102FC000007101600120ABE72068016841F4807165
:102FD000016000960022514620460A9B00F0AAF8A4
:102FE00038B120680068C00501D5C4F840900320BE
:102FF00096E72168F8B240F001000861334659466F
:1030000020460A9A00F0ECF808B1012088E7002079
:1030100086E70000020001002DE9F8430446DDE9DF
:1030200008970D46164698462068016841F480715D
:1030300001604B4600224FF001112046009700F03E
:1030400079F848B120680068C00502D54FF40070D7
:1030500020640320BDE8F883216805F0FE000861C4
:103060003B464A461C49204600F0BAF808B1012008
:10307000F0E720684169806900903A464946204659
:1030800000F04DF948B1206C042804D12068016893
:1030900041F4007101600120DCE7F5B2B8F1010FE5
:1030A0000CD02168300A08613A464946204600F0B3
:1030B00036F968B1206C042803D007E02068056168
:1030C00008E02068016841F4007101600120C1E757
:1030D000206805610020BDE70200010070B50446CC
:1030E0000D4616461FE02046FFF787FE08B1012077
:1030F00070BD681C17D0FEF785FA801BA84200D867
:103100008DB920684069C04340070CD5002044F8C1
:10311000300F20216173A073216941F020012161EA
:103120002073012070BD20684069C0434007DAD495
:10313000002070BD2DE9F0470446DDF820900D46D3
:1031400090461E46C5F307472FE0701C2DD0FEF7B2
:1031500059FAA0EB0900B04200D836BB012F17D0B6
:103160002068806925EA00000004000C1BD00020C4
:1031700040451AD1002044F8300F20216173A0731C
:10318000216941F02001216120730120BDE8F08711
:103190002068406925EA00000004000C01D00020EE
:1031A000E6E70120E4E70120E2E7012F0BD02068E9
:1031B000806925EA00000004000C0FD00020404583
:1031C000C3D00020E2E72068406925EA000000043F
:1031D000000C01D00020F2E70120F0E70120EEE72B
:1031E0002DE9F04704460D46164698464FF0000973
:1031F0004FF0200AC5F3074743E020684069C04309
:10320000400517D42068016841F40071016021680D
:103210006FF480604861C4F8309084F83DA084F871
:103220003E90206C40F00400206484F83C90012023
:10323000BDE8F087701C24D0FEF7E4F9A0EB08008D
:10324000B04200D8EEB9012F14D02068806925EA79
:1032500000000004000C14D0C4F8309084F83DA0A5
:1032600084F83E90206C40F02000206484F83C906C
:103270000120DDE72068406925EA00000004000C19
:10328000EAD1012F08D02068806925EA00000004F7
:10329000000CB2D10020CBE72068406925EA00008D
:1032A0000004000CF6D0A8E72DE9F04104460D46D5
:1032B000164600274FF020082AE04069C043C006A8
:1032C0000FD421686FF010004861276384F83D80B7
:1032D00084F83E70206C206484F83C700120BDE8C6
:1032E000F081FEF78FF9801BA84200D885B92068CD
:1032F0004069C04340060BD544F8307F84F80D8008
:10330000A773206940F02000206127730120E6E7C1
:1033100020684169C9434906CFD40020DFE770B572
:1033200004460D4616461FE02046FFF766FD08B12D
:10333000012070BD681C17D0FEF764F9801BA842FD
:1033400000D88DB920684069C04300060CD5002024
:1033500044F8300F20216173A073216941F02001EE
:1033600021612073012070BD20684069C0430006C0
:10337000DAD4002070BD00002DE9F047634C022133
:103380002046FEF737F9F0B1002604212046FEF76B
:1033900031F9D0B1002708212046FEF72BF9B0B152
:1033A0000025A04610214046FEF724F988B10024EC
:1033B00020214046FEF71EF968B1002056EA070CAE
:1033C0000BD001220AE00126DFE70127E3E7012510
:1033D000E7E70124ECE70120F0E7002254EA0001CE
:1033E00001D0012300E0002342EA0501194302D085
:1033F0004FF0010801E04FF0000845494FF0000987
:10340000B8F1000F75D081F802905FEA050802D08C
:1034100002224A7012E04FF0010802B133B103B149
:103420003AB14AB143B181F8018007E081F80180E7
:1034300004E003224A7001E081F801901EB117B93F
:103440000DB904B918B14EB147B12DB106E04FF036
:1034500041404860BDE8F08704B908B11EB106E0FC
:103460002C484860F6E717B10DB904B908B11EB190
:1034700006E029484860EDE717B10DB104B918B16D
:10348000BCF1000F04D006E04FF040404860E1E797
:103490000DB104B918B1BCF1000F03D005E0C1F8BB
:1034A0000490D7E70DB104B118B15CEA050C04D063
:1034B00005E04FF080404860CCE704B118B1BCF1A2
:1034C000000F04D008E04FF081404860C2E71CB113
:1034D00010B112484860BDE7BCF1000F06D12CB90D
:1034E00020B14FF082404860B4E702E0C1F8049098
:1034F000B0E78878401CC0B288700528AAD30520A0
:10350000887081F80190C1F80490A3E70008014099
:10351000080000200000C0C0000080C00000C040C3
:103520002DE9FF4F044683B01046D4F804A051465D
:10353000FCF76CFEA06001460698FCF76DFE216862
:10354000FCF712FE8146D4F8188006984146FCF735
:1035500063FE266983463146FCF758FE67693946A3
:10356000FCF754FEE169FCF7FFFD0699FCF754FEF9
:10357000E168FCF7F9FD054658463146FCF749FE7F
:10358000064658463946FCF744FE0746206A069927
:10359000FCF742FE4146FCF7E7FD80462846616A9B
:1035A000FCF7E2FD834659462846FCF767FE029089
:1035B00059463846FCF762FE019049460498FCF7EC
:1035C00025FE834659460298FCF726FE4946FCF73D
:1035D000CBFD8146206059460198FCF71DFE5146FF
:1035E000FCF7C2FD606029460298FCF715FE2946EB
:1035F000FCF70FFEE06031460298FCF70DFE314605
:10360000FCF707FE206129460198FCF705FE3946C4
:10361000FCF7FFFD606131460198FCF7FDFD414676
:10362000FCF7F7FDA06107B04846BDE8F08F10B584
:103630000024046044608460C46004614461846167
:10364000C1610262436210BD1CB504460622694690
:103650003B2000F085F89DF801009DF8001040EA3D
:10366000012020809DF803009DF8021040EA01200F
:1036700060809DF805009DF8041040EA0120A080BC
:103680001CBD1CB5044606226946432000F068F8BC
:103690009DF801009DF8001040EA012020809DF86F
:1036A00003009DF8021040EA012060809DF80500AB
:1036B0009DF8041040EA0120A0801CBD2DE9F041D6
:1036C000054618480468466880680146FCF7A4FD72
:1036D000074631463046FCF79FFD3946FCF744FD6E
:1036E00002F01EF8014684F0004001F09FFEDFF872
:1036F00038804146FCF790FD286021462046FCF7C3
:103700008BFD3946FCF730FD02F00AF801463046E1
:1037100001F08CFE4146FCF77FFD68600020A86048
:10372000BDE8F08130010020DE2E654210B5642036
:10373000FDF73AFE00216B2000F020F80721192048
:1037400000F01CF804211A2000F018F800211C20B9
:1037500000F014F81821BDE810401B2000F00EB84E
:103760000EB54FF47A738DE80E0002460123D02186
:103770000148FEF7BDF80EBD6802002013B584B005
:10378000012305AC4FF47A71CDE900430246029162
:10379000D0210248FEF720FA06B010BD68020020D2
:1037A00000B585B0002004902648816941F02001D1
:1037B0008161816901F020010091816941F004017A
:1037C0008161816901F004010091816941F0080182
:1037D0008161806900F0080000903E2001901A4845
:1037E00002900120039001A91848FDF70BFE00226A
:1037F00001210720FEF750FB0720FEF73FFB0022C8
:1038000001210820FEF748FB0820FEF737FB0022C5
:1038100001210920FEF740FB0920FEF72FFB0022C3
:1038200001210A20FEF738FB0A20FEF727FB0022C1
:1038300001211720FEF730FB1720FEF71FFB05B014
:1038400000BD0000001002400000211000080140EF
:1038500010B50D480B4901600C49416000218160A1
:10386000C1604FF48042026141618161C1610162C6
:10387000FDF7CEFE002803D0BDE81040FDF707BDE0
:1038800010BD00000054004014020020A08601007A
:1038900010B50D480B4901600C4941600021816061
:1038A000C1604FF48042026141618161C161016286
:1038B000FDF7AEFE002803D0BDE81040FDF7E7BCE1
:1038C00010BD00000058004068020020A0860100E2
:1038D00010B592B00024109411941C2109A8FCF793
:1038E00038FC202101A8FCF734FC2548234901605D
:1038F00047214160846044F61F61C16004614461F6
:103900008461FFF730F808B1FDF7C1FC1094119401
:1039100010A91B48FEF7DAFD08B1FDF7B8FC6020DE
:10392000099040F2DC500A900B940C940D940E9484
:103930000F94002209A91248FEF7A9FF08B1FDF76C
:10394000A6FC042209A90E48FEF7A1FF08B1FDF765
:103950009EFC019402940394049405944FF4005047
:103960000690089401A90648FEF786FD08B1FDF708
:103970008EFC0348FEF764FF12B010BD002C01401E
:10398000BC02002010B586B0002402940394049475
:1039900005940094019413484FF080410160472141
:1039A0004160846041F28731C16004618461FEF747
:1039B000C1FD08B1FDF76BFC4FF48050029002A9E5
:1039C0000848FEF72BFE08B1FDF761FC0094019456
:1039D00069460448FEF77AFD002801D0FDF757FC40
:1039E00006B010BD04030020FEE7FEE730B400215E
:1039F000084B0022002003EBC0046254401CC0B2FC
:103A00008028F8D3491CC9B20829F3D330BC00F090
:103A10009DB800004C03002010B590280ED240291C
:103A20000CD2CB0801F0070101248C40E1B2064C16
:103A300004EBC0001AB1C25C0A43C25410BDC25CA0
:103A40008A43C25410BD00004C03002010B5C820AA
:103A5000FDF7AAFC0021AE2000F084F90021084601
:103A600000F080F90021102000F07CF900214020B6
:103A700000F078F90021812000F074F90021CF20B6
:103A800000F070F90021A12000F06CF90021C8209D
:103A900000F068F90021A62000F064F90021A820B8
:103AA00000F060F900213F2000F05CF90021D320F4
:103AB00000F058F90021084600F054F90021D52003
:103AC00000F050F90021802000F04CF90021D920AD
:103AD00000F048F90021F12000F044F90021DA203B
:103AE00000F040F90021122000F03CF90021DB2019
:103AF00000F038F90021402000F034F900212020A6
:103B000000F030F90021022000F02CF900218D2076
:103B100000F028F90021142000F024F90021A4204D
:103B200000F020F90021A62000F01CF9FFF75EFF4D
:103B30000021BDE81040AF2000F014B90346012079
:103B400000E05843491EC9B2FBD27047F0B5A3B09C
:103B50000024164D402702AE04F1B000C0B200218F
:103B600000F000F90021084600F0FCF800211020C8
:103B700000F0F8F88DF80870002005EBC00132184D
:103B8000095D5170401CC0B28028F6D34FF0FF3061
:103B90000090812302AA78210548FDF705FE641CE8
:103BA000E4B2082CD8D323B0F0BD00004C030020B1
:103BB000140200202DE9FC4F814688461D46CDF8B1
:103BC0000090C346082D03D0680704D0012003E00D
:103BD0000620019006E0002000EBD500690848436C
:103BE000C0B20190203A02F0FF0A00264EE0082DF4
:103BF00014D00C2D19D0102D1ED0182D49D12749C5
:103C00000AEBCA0001EB8000845D0027E00718D0B2
:103C1000414648460B9AFFF7FFFE19E020490AEBA0
:103C20004A0001EB4000845DEFE71E490AEB4A00C1
:103C300001EB8000845DE8E71B4800EB0A10845D1F
:103C4000E3E70B9838B3002241464846FFF7E4FE0D
:103C5000640808F1010808F0FF087F1CFFB2082F74
:103C6000D4D309F1010909F0FF09082D0BD0009800
:103C7000A9EB0000B0EB550F05D1DDF800900BF17A
:103C8000080B0BF0FF0BD846761CF6B20198864263
:103C9000ADD3BDE8FC8F0122D6E700000464000824
:103CA00078570008A0590008145E00082DE9F84F65
:103CB0000746DDE90A698B46924698460025082E9C
:103CC00000D1022500241DE0A8EB0400401EC1B273
:103CD0000A20FFF733FFBAFBF0F00A21B0FBF1F244
:103CE00001FB120090B13030C2B205EB560000FB70
:103CF0000470C0B233465946CDF80090FFF75AFF22
:103D0000641CE4B24445DFD3BDE8F88F05EB5600F0
:103D100000FB0470C0B2334630225946CDF8009003
:103D2000FFF748FFECE72DE9F841044688461546C1
:103D30001E46079F0BE03346414620460097FFF79B
:103D400039FF082E0AD004EB5600C4B26D1C2A7845
:103D5000A2F120005E28EED9BDE8F881A41DE4B2EE
:103D6000F4E700001CB5002903D040218DF80410B1
:103D700002E000218DF804108DF805004FF0FF30AF
:103D80000090022301AA78210148FDF70DFD1CBD1A
:103D9000140200202DE9F05F04460D46174639460F
:103DA0002846FCF733FA0646606B314680F0004047
:103DB000FCF7FEFB0AD23046616BFCF7F9FB05D23B
:103DC0006661A7610020E061BDE8F09F2946206B95
:103DD000FCF722FA3946FCF719FA2168FCF71CFABD
:103DE00081463946A069FCF711FAE5682946FCF7D7
:103DF00045FA80462846A16AFCF7B6F901462846EE
:103E0000FCF73CFA824651464FF07E50FCF7FEF933
:103E1000E16AFCF701FA834641465046FCF7FCF99B
:103E20005946FCF7A1F9E062A26801461046FCF78A
:103E3000F3F9804629463046FCF7EEF92169FCF794
:103E400093F92061616AFCF7BDFB01D2606A2061D1
:103E5000216A2069FCF7ACFB01D2206A206121694C
:103E60006068FCF7D9F94946FCF77EF94146FCF752
:103E70007BF905462846616AFCF7A4FB00D2656A17
:103E8000216A2846FCF794FB00D2256A6661A76187
:103E9000E561284698E72DE9F04107ACDDF8188088
:103EA00094E8F010016042608360C0F80C8000214B
:103EB000016141618161C161046245628662C162E2
:103EC0000763C0F834C0BDE8F08170472DE9F84FB2
:103ED000FDF798FB0646FFF789FD4FF00109102317
:103EE00041A219460020CDF80090FFF71CFFFFF714
:103EF0002DFE4FF4FA784046FDF756FA40F6C41707
:103F000058E03D48FFF7A0FB3C48FFF7BAFB002410
:103F1000DFF8E4A03A4D6FF00E0B3AF91400FCF70D
:103F20000DFB0121FCF7E8F95946FCF7E5F945F8E6
:103F30002400641C032CF0DB3248FFF7BFFB314840
:103F400004684568DFF8C0B020465946FCF764F9BC
:103F5000FCF702FB824659462846FCF75DF9FCF760
:103F6000FBFA01460AF2DC5001F2DC51404500DA6E
:103F70004046B84200DD3846414500DA4146B94284
:103F800000DD3946214A80B213685863126889B24D
:103F900091631F4A10801F48018024F000404FF0B9
:103FA0007C51884203DA25F00040884209DB322048
:103FB000FDF7FAF9FDF726FB811B40F6B830814288
:103FC0009FD3FFF713FD102313A219460020CDF84D
:103FD0000090FFF7A8FEFFF7B9FDBDE8F84F4FF4DA
:103FE0007A70FDF7E1B9000043414C494252415417
:103FF000494E472E2E2E0000460000204C00002087
:104000003001002048010020000048C2BC0200200E
:10401000360000203800002052454144590000007D
:104020002DE9F04F99B0D148FFF70EFBD048FFF7CC
:1040300028FB0024CD4ECE4FDFF83883DFF838A3BD
:10404000CE4D6FF00E0936F91400FCF777FA012116
:10405000FCF752F94946FCF74FF948F8240037F9C4
:104060001400FCF76BFA5146FCF708F945F82400F8
:10407000641C032CE7DBC248FFF720FBC04EC14F96
:104080006A683B46C0483168FFF74AFA04462A6826
:104090003B46BE487168FFF743FA8146DFF8F4A259
:1040A000BB4E20469AF8005056F82510FCF7AEF8A3
:1040B000DAF81010FCF758F88346CAF8100006F139
:1040C0002008484658F82510FCF7A0F8DAF8141034
:1040D000FCF74AF80746CAF8140046F8254048F8A5
:1040E00025906D1C05F007008AF800009AF8010081
:1040F000082802D2401C8AF801009AF80100FCF757
:1041000026FA054601465846FCF7B8F80646294601
:104110003846FCF7B3F805469F493046FCF77CF873
:10412000DFF878B24FF03F484FF07C575E4501D240
:10413000394600E04146FCF717F8FCF70DFA064651
:1041400095492846FCF768F85D4501D2394600E0FC
:104150004146FCF709F8FCF7FFF90546DAF81800C4
:10416000DFF83CB2864209D0CAF818603046FCF746
:10417000E5F95946FCF750F8CAF80400DAF81C00D3
:10418000854209D0CAF81C502846FCF7D7F9594691
:10419000FCF742F8CAF80800FDF78EF88346FDF7F1
:1041A00079F80546002615B1CAF80CB012E0DAF825
:1041B0000C003946884204DDFCF728F8CAF80C00E8
:1041C00008E0404504D9FBF7CFFFCAF80C0001E036
:1041D000CAF80C60DAF80C8072480168491C01606A
:1041E000714A724F002D7DD016603E70224600212C
:1041F0006F48FFF7CFFD04464A4641466D48FFF73A
:10420000C9FD83462046FCF7A7F900F2DC54584666
:10421000FCF7A2F900F2DC504FF4FA72944200DA93
:10422000144640F6C4118C4200DD0C46904200DA80
:104230001046884200DD08465F4AA1B211805F4AFD
:1042400080B210805E4A13685963116888633B78B6
:10425000DAE901012A46FCF74BFF9AF80200401CFC
:10426000C0B28AF8020005281DD38AF802605846B9
:10427000FCF78BF904460D464846FCF786F90646DE
:104280000F464046FCF781F98DE8C3004DA2CDE909
:10429000044530210DA800F09FFB82B232230DA906
:1042A0004C48FEF751FD15AB16AA17A918A800F047
:1042B0005DFA002837D03E49DDF860A0C1F800A0C3
:1042C000DDF85C80C1F80480169E8E601598486306
:1042D0003849C1F800A0C1F804808E604863FCF73B
:1042E00054F900E022E004460D463046FCF74DF953
:1042F00006460F464046FCF748F980468946504638
:10430000FCF743F98DE8030333A2CDE90467CDE957
:104310000645302109A800F05FFB82B2322309A9CB
:104320002C48FEF711FD19B0BDE8F08F24F00040D5
:104330004FF07E53984215DA29F00040984211DA86
:1043400028F0004098420DDA1068401C1060B0F56B
:10435000167FFFF44BAFB1F57A7F3FF647AF0120F0
:10436000387043E716603E7040E7000046000020CA
:104370004C00002030010020333383413C010020F9
:10438000480100200AD7A33B540100207C010020F3
:10439000F000002014000020000020410000808078
:1043A000CDCCCC3D400000203C000020440000204B
:1043B000A4010020DC01002036000020380000208D
:1043C000BC020020252E31662C252E32662C252E8F
:1043D00031660A00680000204F4B3A252E32662CC9
:1043E000252E32662C252E33662C252E31660A00AA
:1043F00008B507494FF4FA520968B1FBF2F141439D
:10440000009100BF0098411E0091FAD208BD000043
:10441000540000207047FDF7D7BC30B58FB028217D
:1044200005A8FBF796FE14216846FBF792FE0121D2
:1044300005910804069000240794099102250C9523
:104440000D904FF4E0100E9005A8FDF73DFE08B169
:10445000FCF71DFF0F200090019502944FF480603F
:104460000390049402216846FDF748FD002801D01E
:10447000FCF70DFF0FB030BD704700000148FEF79C
:1044800042B9000004030020F0B50268194C1A4D2F
:104490001A4E4FF08047A04205D0B84203D0A84240
:1044A00001D0B04203D122F070034A681A43A042FF
:1044B00005D0B84203D0A84201D0B04203D122F4C3
:1044C0004073CA681A434B6922F080021A430260A3
:1044D0008A68C2620A688262A04201D109690163E6
:1044E000012141610169C90703D0016921F001017E
:1044F0000161F0BD002C01400004004000080040B4
:1045000010B501F01F0101238B40046A9C43046233
:10451000036A8A401343036210BD10B5846824F413
:104520007F4442EA03220A432243826010BD82682C
:1045300022F070020A4342F00701816070470000D8
:1045400030B5026A036A23F0010303624368846999
:1045500024F0700424F003050C682C4322F00205BB
:104560008A682A430D4DA84206D122F00802CD6880
:1045700045EA020525F0040209D123F4807323F4EF
:1045800000734D6945EA03058B6943EA05034360FF
:10459000846149684163026230BD0000002C014023
:1045A00030B5036A026A22F010020262426884692E
:1045B00024F4E04424F440740D6844EA052423F014
:1045C00020038D6843EA05130D4DA84206D123F060
:1045D0008003CD6843EA051323F0400309D122F498
:1045E000806222F400624D6942EA85028D6942EAE6
:1045F00085024260846149688163036230BD0000C6
:10460000002C014030B5026A036A23F48073036210
:104610004368C46924F0700424F003050C682C433B
:1046200022F400728D6842EA05220D4DA84206D19F
:1046300022F40062CD6842EA052222F4806209D1A8
:1046400023F4805323F400534D6943EA05138D6925
:1046500043EA05134360C4614968C163026230BD27
:10466000002C014030B5036A026A22F480520262D3
:104670004268C46924F4E04424F440740D6844EAB8
:10468000052423F400538D6843EA0533064DA84200
:1046900004D122F480424D6942EA85124260C4612D
:1046A00049680164036230BD002C014010B5036A03
:1046B000046A24F001040462846924F0F00444EAEA
:1046C000021423F00A020A438461026210BD10B58D
:1046D000036A046A24F010040462846924F47044B8
:1046E00044EA023223F0A00343EA0111826101622D
:1046F00010BD10B5406A0021C185C184FEF7D0F914
:1047000010BD01680C3151E8002F22F4907241E88D
:104710000023002BF5D10168143151E8002F22F05D
:10472000010241E80023002BF5D1016B012909D1D9
:1047300001680C3151E8002F22F0100241E80023FB
:10474000002BF5D1202180F8421000210163704731
:1047500010B50168CA6822F04002CA60202180F8C2
:104760004110FEF748FB002010BD0000F8B50746D9
:104770000E4615461C461D484178002906D00021EA
:1047800041701B480178502905D101E00020F8BD97
:1047900041783A2901D00020F8BD801C694600F01C
:1047A000D5FF3860009801782C2901D00020F8BD91
:1047B000401C694600F0CAFF3060009801782C293F
:1047C00001D00020F8BD401C694600F0BFFF286002
:1047D000009801782C2901D00020F8BD401C6946C2
:1047E00000F0B4FF20600120F8BD000000000020B0
:1047F000B000002008B590F84210222901D0022014
:1048000008BD82684FF480539A4201D1016921B1F9
:10481000816A9A421DD052B10BE0816A02685268E7
:10482000C2F308020A80816A891C816209E0026978
:104830007AB10268526802F07F020A70816A491CEC
:104840008162C18D491E0904090CC18505D0002073
:1048500008BD026852680A70F0E70168CA6822F071
:104860002002CA600168CA6822F48072CA600168C6
:104870004A6922F001024A61202180F84210002199
:104880004163026B012A03D0FEF732FA002008BD13
:10489000016301680C3151E8002F22F0100241E859
:1048A0000023002BF5D101680A68D20602D50A68F8
:1048B00049680091818DFEF7F2F8E7E78162828511
:1048C000C28500214164222180F84210016900293B
:1048D00004D00168CA6842F48072CA6001684A69FB
:1048E00042F001024A610068C16841F02001C160E4
:1048F0000020704790F84110212901D00220704714
:104900008168B1F5805F01D1016961B1016A4A1C1A
:104910000262026809785160C18C491E0904090CC1
:10492000C1840AD013E0016A02680988C1F3080152
:104930005160016A891C0162EEE70168CA6822F0D1
:104940008002CA600068C16841F04001C160002077
:1049500070472DE9F84304460D4617469846089ED1
:1049600025E0701C23D0FCF74DFEA0EB0800B04200
:104970001BD8D6B12068C168490718D5802D16D03C
:10498000402D14D00168C943090710D400252168BF
:104990000968406800902046FFF7B3FE0820606475
:1049A00084F840500120BDE8F8830320FBE720682D
:1049B000006835EA000004D00020B842D1D00020C1
:1049C000F1E70120F9E700000148FEF76BB80000AD
:1049D00068000020FEE700000FB41CB5024600206E
:1049E00007AC00290BD0491ECDE90021054B6A46D2
:1049F0002146069800F078F9009A002111701CBC3D
:104A00005DF814FB175400084100080218BF042089
:104A10000A0E18BF40F001004FF07F4232EA010158
:104A200008BF40F00200012808BF052070470907B1
:104A3000090E002804DB00F1E02080F80014704724
:104A400000F00F0000F1E02080F8141D7047FBF724
:104A50008BBB6FF05E010807FBF74EBC10B5044638
:104A6000D1E9000100F002F8206010BDF8B504465D
:104A70000D466A4600F008FE00987E30009000283F
:104A80001EDC0022134620462946FCF7B5F917D054
:104A9000002140F60800FCF7E3F9064620462946C7
:104AA000FCF7C2F9044640F6080006EA0001FCF7EC
:104AB000D7F934F0004004BF022000F045F829E0A7
:104AC0000098FF2828DB00210846FCF7C9F900F40C
:104AD00040060022134620462946FBF73FFF8CBFC5
:104AE00000250125022000F02FF84FF0FF4446B1C9
:104AF000002D0CBF4FF400004FF48000B04218BFEF
:104B0000084C04210846FCF7ABF9002D04BF84F0E3
:104B10000040F8BD2046F8BD20462946BDE8F840D3
:104B2000FCF782B9FFFF7F7F02E008C8121F08C1AF
:104B3000002AFAD170477047002001E001C1121F1E
:104B4000002AFBD17047000001490860704700004F
:104B5000640000202DE9FF5F82B00021DDE9043010
:104B6000020DDDF840B0034318D044F61050A2F215
:104B7000FF3242431514119801281FD0A5EB0B00FA
:104B8000401C5FEA000A4FF000064E4FDFF83891F4
:104B9000B046504615D5CAF1000413E0119801241F
:104BA0004AA3012801D16FEA0B010298119AC0E9CA
:104BB0000031C0E9024206B0BDE8F09FCBF1000031
:104BC000DFE704460021404A491842EB0450CDE992
:104BD000001012E0E00707D032463B464046494607
:104BE000FBF732FE8046894632463B461046194660
:104BF000FBF72AFE06460F466410002CEAD1DDE9D9
:104C00000401DDE90023BAF1000F06DAFBF71CFE10
:104C100042464B46FBF718FE05E0FBF720FC4246F8
:104C20004B46FBF71CFC04460E460022284BFBF7C4
:104C300095FE03D84FF0FF30014607E00022254BD8
:104C400020463146FBF764FBFBF770FE102409E0B9
:104C5000002C0ADB0A220023FBF7D4FC039B303232
:104C60001A55641E50EA0102F2D1641C039AC4F181
:104C700011031444119A012A03D0012208430DD1D3
:104C80000AE0084304D000204FF0110B119072E7A6
:104C9000A3EB0B056D1E0DE05B4504DD4FF000023C
:104CA00005F1010504E003DA4FF00002A5F101056A
:104CB000002AECD002981199C0E90231C0E9004500
:104CC00079E70000000014400000F03F30000000D1
:104CD0000000F0430000E03F30380A2801D20120F4
:104CE00070470020704700002DE9FF4F95B09B46AC
:104CF0008946064600250FE2252877D1002427465D
:104D0000F84A0121059400E0044316F8013F203BD6
:104D100001FA03F01042F7D130782A2811D06FF051
:104D20002F033078A0F13002092A16D8059A44F0F2
:104D3000020402EB820203EB42021044761C05904F
:104D4000EFE759F8042B0592002A03DA504244F4A5
:104D50000054059044F00204761C30782E2816D1B9
:104D600016F8010F44F004042A280DD06FF02F022A
:104D70003078A0F13003092B09D807EB870302EB49
:104D80004303C718761CF3E759F8047B761C307888
:104D90006C280FD006DC4C2817D068280DD06A2864
:104DA00014D104E0742810D07A280FD10DE044F417
:104DB00000140AE044F4801401E044F440147278D2
:104DC000824202D104F58014761C761C3078662865
:104DD0000BD013DC582877D009DC002875D0452883
:104DE000F6D04628F4D047281AD19DE118E0632870
:104DF00035D0642879D0652812D195E1702873D018
:104E000008DC6728F1D069286FD06E280DD06F2894
:104E100006D1B5E073282CD0752875D0782874D0C9
:104E20005A46179990476D1C75E1C4F30250022849
:104E300009D003280DD0D9F8001004280DD00D603A
:104E400009F1040967E1D9F80010EA17C1E9005235
:104E5000F6E7D9F800100D80F2E70D70F0E719F8C9
:104E6000041B8DF8001000208DF80100EA46012097
:104E700003E059F804AB4FF0FF3061074FF0000139
:104E800002D40DE008F101018846B9420FDA8045ED
:104E9000F8DB1AF808100029F4D108E008F1010144
:104EA00088468142FADB1AF808100029F6D10598E5
:104EB0005B46A0EB080721463846179A00F094FAA3
:104EC000284400EB080507E04DE029E10DE01AF861
:104ED000010B5A4617999047B8F10108F7D25B4683
:104EE00021463846179A13E142E00A220092C4F3A1
:104EF00002524FF0000A022A08D059F804CB032AC4
:104F00004FEAEC710AD00DE029E02AE009F107012F
:104F100021F00702F2E802C1914609E00FFA8CFC89
:104F20004FEAEC71042A03D14FFA8CFC4FEAEC7182
:104F3000002907DA0A460021DCF1000C61EB0201CE
:104F40002D2202E0220504D52B228DF80420012217
:104F500003E0E20701D02022F7E7904659E00A215A
:104F600002E010220DE010214FF0000A00910BE04A
:104F700010224FF0000A44F004040827009203E0D6
:104F800008224FF0000A0092C4F30252022A05D010
:104F900059F804CB0021032A08D009E009F10701E0
:104FA00021F00702F2E802C1914605E01FFA8CFCED
:104FB000042A01D10CF0FF0C4FF00008220728D57D
:104FC000702806D0009B83F0100353EA0A0305D033
:104FD0000EE040228DF80420012208E05CEA010284
:104FE00006D030228DF804208DF80500022290466C
:104FF000009B83F0080353EA0A030AD15CEA01022A
:1050000001D1620705D530228DF804204FF0010848
:105010007F1E582804D034A003900EA802900DE003
:1050200036A0F9E753466046009AFBF7EBFA844650
:105030000398825C0298401E029002705CEA0100B4
:10504000F0D1029806A9081A00F1200A600702D5DB
:1050500024F4803400E00127574502DDA7EB0A0065
:1050600000E0002000EB0A01009005984144401A3E
:105070000590E00306D45B462146179A059800F098
:10508000B3F90544002706E001A85A46C05D179908
:1050900090476D1C7F1C4745F6DBE0030CD55B4653
:1050A0002146179A059800F09FF9054404E0302046
:1050B0005A46179990476D1C0099481E0090002988
:1050C000F5DC08E0029802995A460078491C0291E2
:1050D000179990476D1CBAF10001AAF1010AF1DCA1
:1050E00065E10000092801003031323334353637AC
:1050F0003839616263646566000000003031323324
:1051000034353637383941424344454600000000C3
:1051100000F058F90544761C307800287FF4ECAD97
:1051200019B02846BDE8F08F620700D4062709F1C0
:10513000070222F0070CFCE80223E14603F00048D6
:105140005FEA080C02D00FF2702C0DE05FEA045CFD
:1051500002D50FF2682C07E05FEAC47C02D00FF2A0
:10516000602C01E0AFF2700C4FF0FF3823F00043E9
:10517000CDF850C065280CD006DC452809D046285B
:105180001DD047283DD13DE0662818D067287ED144
:1051900038E00021112F01DB112000E0781CCDE95F
:1051A000000106A90EA8FFF7D5FCDDE90F010E9A54
:1051B00003910021009207F1010A04914DE04FF0A4
:1051C00000400097CDE9011006A90EA8FFF7C2FC28
:1051D000DDE90F0203920E9B11990022DDF80CA06D
:1051E0000093049211B9791C00EB010AB7EB0A0095
:1051F00004D4C0F1FF3007F1010A0490AAEB0700C4
:10520000019044E0012F00DA01270021112F01DD78
:10521000112000E03846CDE9000106A90EA8FFF7ED
:1052200099FCDDE90F010E9A03910021049100928F
:10523000BA4621070CD40399514500DA8A46BAF1DF
:10524000010F05DD009AAAF10101515C302908D057
:10525000B84202DA10F1040F06DA0121CDE901109B
:1052600015E0AAF10101E9E7002805DC04990144F1
:105270000491AAEB000102E0411C514500DD8A4681
:105280000499401A401C01904FF000400290200702
:1052900004D40198504501DBCDF8048000208DF83E
:1052A0004F0002980DF14F07B0F1004F25D02B2091
:1052B0000E9002984FF0020800280CDA404202904B
:1052C0002D200E9007E00A210298FBF785F9303176
:1052D000029007F8011DB8F10001A8F10108F2DC05
:1052E00002980028EFD1791E0E980870307800F0EF
:1052F000200040F0450007F8020D12A8C01B00F185
:1053000007081498007800B1012000EB0A01019809
:1053100001EBE07105984144401A401E0590E003FE
:1053200006D45B462146179A059800F05DF80544BF
:105330001498007818B15A46179990476D1CE003ED
:1053400024D55B462146179A059800F04DF8054490
:105350001CE00498002807DBDDE90301884203DD37
:105360000098405C179901E0179930205A46904701
:10537000049805F10105401C04900198401E01901D
:1053800004D12E205A46179990476D1CBAF100019E
:10539000AAF1010ADDDC05E017F8010B5A4617995E
:1053A00090476D1CB8F10001A8F10108F4DC5B46E0
:1053B0002146179A0598ABE62D0000002B0000004F
:1053C000200000002DE9F041044600251E46174646
:1053D000880404D405E039462020B0476D1C641EC3
:1053E000F9D52846BDE8F0812DE9F04104460025B5
:1053F0001E469046C80301D5302700E020278804C8
:1054000004D505E041463846B0476D1C641EF9D509
:105410002846BDE8F0814A68002A06D00A68531C75
:105420000B6010704868401E486070472DE9F047D7
:105430004FF0684202EB40030C460546B3F1654F5E
:105440003CBF02EB4102B2F1654F7CD2C0F3C753BF
:10545000C1F3C7529A1A1B2A06DD10F0004F14BF81
:1054600076487748BDE8F08712F11A0F17DA11F085
:10547000004F06D010F0004F0CBF72487248BDE8D4
:10548000F08721462846FAF7F9FE0446FFF7BCFAF2
:10549000042808BFFFF7DDFA2046BDE8F087420088
:1054A000B2EB410F25D910F0004F19BF674F684E7E
:1054B000684F694E224685F0004415460A4680F042
:1054C000004110460A1A5200B2F1807F40D2484093
:1054D0006249DFF88CA110F0004F18D04FF03F4820
:1054E0003846FAF793FE074651463046FAF78EFEE5
:1054F00017E011F0004F04BF00263746E2D010F04D
:10550000004F19BF574F584E584F594EDAE74FF0DA
:105510007C583846FAF728FE074651463046FAF7D7
:1055200023FE064641462846FAF776FE2146FAF75C
:105530001BFE824621464046FAF76EFE2946FAF7E0
:1055400068FE514600E037E0FAF798FE044604E0B2
:1055500021462846FAF792FE04460146FAF75CFE19
:1055600080464449FAF758FE4349FAF7FDFD4146A3
:10557000FAF752FE4149FAF7F7FD4146FAF74CFEB9
:105580003F49FAF7F1FD4146FAF746FE3D49FAF781
:10559000EBFD054641462046FAF73EFE2946FAF75E
:1055A0003BFE3146FAF7E0FD2146FAF7DDFD3946CC
:1055B000BDE8F047FAF7D8BD4FF07F42B2EB400F9D
:1055C00028BFB2EB410F03D2BDE8F047FFF73FBA67
:1055D00040EA01035B0008BF44F0FF410AD0B2EB90
:1055E000400F08BFB2EB410F06D125F0804024F0F8
:1055F000804105460C4629E7B2EB400F12BF5FEA37
:10560000410245F0FF4004F000413FF41FAF4A0063
:1056100092EA40033FF51AAF002AACBF4FF09F4615
:105620004FF03E563146FAF7F7FD05463146204623
:10563000FAF7F2FD04462846214607E7DB0FC9BF0B
:10564000DB0FC93FDB0F4940DB0F49C00000C9BF7A
:1056500022AAFDB90000C93F22AAFD390060ED3E33
:10566000C30ACE37000049C022AA7DBA00004940D3
:1056700022AA7D3A2DAD65BD8FB8D53D0FB511BEBF
:1056800061C84C3EA8AAAABE10B5144600222260EA
:10569000114A21F000439342A8BF10BD53EA000213
:1056A00008BF10BDB3F5801FA8BF226807DA3622F5
:1056B000FBF7ECFB6FF0350221F000432260DFF8CE
:1056C0001CC06FF31E510CEB23531A4441F0FF51E1
:1056D00041F00051226010BD0000F07F02FCFFFF8E
:1056E000FCF77AFBFEF799FEFEF75AF8FEF7D0F8C2
:1056F000FEF7AEF8FEF7ECF8FEF744F9FBF7EAFB2D
:105700000548FCF759FF054C002520780028FCD0FF
:105710002570FEF785FCF8E7040300203400002024
:1057200070B50546FBF704F8044620F00040C0F1D0
:10573000FF40C00F08D025F00040C0F1FF40C00F6F
:1057400004BF0120FFF700FA204670BD08B50A46E5
:105750000021009101466846FAF7A6FF009808BDAF
:105760000000000000000000010203040607080911
:10577000000000000102030400000000000000001F
:10578000002F000000000700070000147F147F14A2
:1057900000242A7F2A120062640813230036495528
:1057A000225000000503000000001C224100000000
:1057B00041221C000014083E08140008083E080896
:1057C000000000A0600000080808080800006060F1
:1057D0000000002010080402003E5149453E000030
:1057E000427F4000004261514946002141454B3112
:1057F000001814127F10002745454539003C4A49DE
:10580000493000017109050300364949493600064F
:105810004949291E000036360000000056360000B7
:105820000008142241000014141414140000412232
:10583000140800020151090600324959513E007C0A
:105840001211127C007F49494936003E41414122F4
:10585000007F4141221C007F49494941007F0909DD
:105860000901003E4149497A007F0808087F00008D
:10587000417F4100002040413F01007F0814224148
:10588000007F40404040007F020C027F007F040800
:10589000107F003E4141413E007F09090906003E5C
:1058A0004151215E007F0919294600464949493185
:1058B0000001017F0101003F4040403F001F2040A8
:1058C000201F003F4038403F006314081463000766
:1058D0000870080700615149454300007F414100BD
:1058E00000552A552A55000041417F00000402015D
:1058F000020400404040404000000102040000203B
:1059000054545478007F4844443800384444442078
:1059100000384444487F00385454541800087E0925
:1059200001020018A4A4A47C007F080404780000ED
:10593000447D4000004080847D00007F10284400AA
:105940000000417F4000007C04180478007C0804BB
:10595000047800384444443800FC242424180018F7
:10596000242418FC007C08040408004854545420E3
:1059700000043F444020003C4040207C001C20406C
:10598000201C003C4030403C004428102844001CAF
:10599000A0A0A07C004464544C44141414141414A7
:1059A0000000000000000000000000000000FC00FB
:1059B0000000000002000000000C020C02000000C9
:1059C0000000000090D0BCD0BC9000030003000099
:1059D0001824FE448C000302070201001824D8B0EA
:1059E0004C80000300010201C038E438E0000102ED
:1059F0000201020208060000000000000000000092
:105A0000000000F80402000000010204000204F893
:105A100000000004020100009060F86090000000A7
:105A2000010000002020FC202000000001000000F8
:105A300000000000000008060000000020202020D8
:105A40002000000000000000000000000000000234
:105A5000000000000080601C020004030000000041
:105A6000F8040404F8000102020201000008FC002E
:105A700000000002030200001884442418000302FE
:105A80000202020008042424D800010202020100DC
:105A900040B088FC80000000000302003C24242465
:105AA000C400010202020100F824242CC0000102FB
:105AB000020201000C04E41C0400000003000000CA
:105AC000D8242424D80001020202010038444444AE
:105AD000F8000003020201000000100000000000B6
